:1000000045C000004BC0000049C0000047C00000D0
:1000100045C0000043C0000041C000003FC00000D8
:100020003DC000003BC0000039C0000037C00000E8
:1000300035C0000033C0000031C000003EC00000E9
:100040002EC000002BC0000029C0000027C0000007
:1000500025C0000023C0000021C000001FC0000018
:100060001DC000001BC0000019C0000017C0000028
:1000700015C0000013C0000011C000000FC0000038
:100080000DC000000BC0000009C0000011241FBEFD
:10009000CFEFD0E1DEBFCDBF1BD04EC0B1CF1F929E
:1000A0000F920FB60F9211248F938FEF8BBB8F910E
:1000B0000F900FBE0F901F9018951F920F920FB6C2
:1000C0000F9211241BBA0F900FBE0F901F9018951E
:1000D0008FEF8ABB8BBB83B7886483BF87B783608E
:1000E00087BF789483B7876083BF20E030E00DC07E
:1000F00021BF88EE93E005C0E0E9F1E03197F1F728
:1001000001970097C9F72F5F3F4F2F3F310584F3C9
:100110002FEF30E00DC021BF88EE93E005C0E0E98D
:10012000F1E03197F1F701970097C9F721503109B4
:0C0130001216130684F3D9CFF894FFCF09
:00000001FF
