:1000000045C0000060C000005EC000005CC0000091
:100010005AC0000058C0000056C0000054C0000084
:1000200052C0000050C000004EC000004CC0000094
:100030004AC0000048C0000046C0000053C0000095
:1000400043C0000040C000003EC000003CC00000B3
:100050003AC0000052C0000036C0000034C00000AA
:1000600032C0000030C000002EC000002CC00000D4
:100070002AC0000028C0000026C0000024C00000E4
:1000800022C0000020C000001EC0000011241FBEBE
:10009000CFEFD0E1DEBFCDBF11E0A0E0B1E0E2E8FC
:1000A000F5E000E00BBF02C007900D92A031B10750
:1000B000D9F721E0A0E1B1E001C01D92A631B2075D
:1000C000E1F789D05CC29CCF1F920F920FB60F92BE
:1000D00011248F938FEF8BBB8F910F900FBE0F90DA
:1000E0001F9018951F920F920FB60F9211241BBAF2
:1000F0000F900FBE0F901F9018951F920F920FB682
:100100000F9211240BB60F922F933F934F935F934F
:100110006F937F938F939F93AF93BF93CF93DF930F
:10012000EF93FF93C4B1D5B1BE0180E090E027D139
:1001300020ED3FE34FE75EE3B0D19B01AC0160E00F
:1001400070E08FE793E48AD0EED07093150160934E
:10015000140140E050E027C09E01ADECBCEC00D2A1
:100160009695879596958795969587959C01220FEC
:10017000331F880F991F880F991F880F991F820FAF
:10018000931F9E01281B390BFA01E05FFE4F20836D
:100190009E01E6D1EC01D695C795D695C795D69523
:1001A000C7954F5F5F4F44305105B4F2FF91EF9117
:1001B000DF91CF91BF91AF919F918F917F916F917F
:1001C0005F914F913F912F910F900BBE0F900FBEFB
:1001D0000F901F9018958FEF8ABB84BB8FE08093A0
:1001E0006400E1E6F0E080818E7F808317B886B1FD
:1001F0008F6886B983B7886483BF87B7836087BFFA
:10020000789483B7876083BF86B1806486B986B1EE
:10021000806486B980E090E01AC021E030E0082ECA
:1002200002C0220F331F0A94E2F720936500FC01FD
:10023000E05FFE4FE081F0E0E050FF4F208125BB02
:10024000EFE9FFE03197F1F700C00000019684303C
:1002500091051CF38091140181BFD9CF5058BB2761
:10026000AA270ED0E0C0D1D030F0D6D020F031F4A3
:100270009F3F11F41EF4C6C00EF4E095E7FBBCC02E
:10028000E92FE2D080F3BA17620773078407950756
:1002900018F071F49EF5FAC00EF4E0950B2EBA2F0B
:1002A000A02D0B01B90190010C01CA01A00111247C
:1002B000FF27591B99F0593F50F4503E68F11A1628
:1002C000F040A22F232F342F4427585FF3CF4695B9
:1002D00037952795A795F0405395C9F77EF41F16DB
:1002E000BA0B620B730B840BBAF09150A1F0FF0FA5
:1002F000BB1F661F771F881FC2F70EC0BA0F621F91
:10030000731F841F48F4879577956795B795F79580
:100310009E3F08F0B3CF9395880F08F09927EE0F12
:1003200097958795089598D088F09F5790F0B92FAA
:100330009927B751A0F0D1F0660F771F881F991F3A
:100340001AF0BA95C9F712C0B13081F09FD0B1E070
:1003500008959CC0672F782F8827B85F39F0B93F80
:10036000CCF3869577956795B395D9F73EF490953C
:100370008095709561957F4F8F4F9F4F0895E894BA
:1003800009C097FB3EF490958095709561957F4FDD
:100390008F4F9F4F9923A9F0F92F96E9BB2793958B
:1003A000F695879577956795B795F111F8CFFAF49B
:1003B000BB0F11F460FF1BC06F5F7F4F8F4F9F4FCC
:1003C00016C0882311F096E911C0772321F09EE82A
:1003D000872F762F05C0662371F096E8862F70E090
:1003E00060E02AF09A95660F771F881FDAF7880F6A
:1003F0009695879597F9089597F99F6780E870E03B
:1004000060E008959FEF80EC089500240A9416168A
:10041000170618060906089500240A9412161306F2
:10042000140605060895092E0394000C11F4882380
:1004300052F0BB0F40F4BF2B11F460FF04C06F5F9C
:100440007F4F8F4F9F4F089557FD9058440F551F72
:1004500059F05F3F71F04795880F97FB991F61F046
:100460009F3F79F087950895121613061406551FBD
:10047000F2CF4695F1DF08C0161617061806991F29
:10048000F1CF86957105610508940895E894BB271E
:1004900066277727CB0197F908950BD0C4CFB5DF36
:1004A00028F0BADF18F0952309F0A6CFABCF1124BE
:1004B000EECFCADFA0F3959FD1F3950F50E0551F03
:1004C000629FF001729FBB27F00DB11D639FAA27A9
:1004D000F00DB11DAA1F649F6627B00DA11D661FF8
:1004E000829F2227B00DA11D621F739FB00DA11D19
:1004F000621F839FA00D611D221F749F3327A00DD3
:10050000611D231F849F600D211D822F762F6A2F6E
:1005100011249F5750408AF0E1F088234AF0EE0FF3
:10052000FF1FBB1F661F771F881F91505040A9F700
:100530009E3F510570F060CFAACF5F3FECF3983E2D
:10054000DCF3869577956795B795F795E7959F5F67
:10055000C1F7FE2B880F911D9695879597F9089501
:10056000A29FB001B39FC001A39F700D811D1124F4
:10057000911DB29F700D811D1124911D0895F89455
:02058000FFCFAB
:100582003F065B4F666D7D077F6F777C395E7971C1
:00000001FF
