:1000000045C0000060C000005EC000005CC0000091
:100010005AC0000059C0000080C0000054C0000059
:1000200052C0000050C000004EC000004CC0000094
:100030004AC0000048C0000046C0000097C0000051
:1000400042C0000040C000003EC000003CC00000B4
:100050003AC00000E0C0000036C0000034C000001C
:1000600032C0000030C000002EC000002CC00000D4
:100070002AC0000028C0000026C0000024C00000E4
:1000800022C0000020C000001EC0000011241FBEBE
:10009000CFEFD0E1DEBFCDBF11E0A0E0B1E0E6E9F7
:1000A000F6E000E00BBF02C007900D92A033B1074D
:1000B000D9F721E0A0E3B1E001C01D92A933B20756
:1000C000E1F7F1D0E6C29CCF1F920F920FB60F92CC
:1000D00011240BB60F922F933F934F935F936F931F
:1000E0007F938F939F93AF93BF93EF93FF9380E1A1
:1000F00091E016D2FF91EF91BF91AF919F918F91B7
:100100007F916F915F914F913F912F910F900BBE17
:100110000F900FBE0F901F9018951F920F920FB661
:100120000F9211240BB60F922F933F934F935F932F
:100130006F937F938F939F93AF93BF93EF93FF93AF
:100140008CE191E0EDD1FF91EF91BF91AF919F9143
:100150008F917F916F915F914F913F912F910F9070
:100160000BBE0F900FBE0F901F9018951F920F920D
:100170000FB60F9211240BB60F922F938F939F936C
:10018000EF93FF938091330190913401892B01F11A
:1001900081E090E00090320102C0880F991F0A941C
:1001A000E2F780936500E0913201F0E0EB5CFE4FF6
:1001B000E081F0E0E050FF4F808185BB809132010B
:1001C0008F5F80933201843039F41092320104C081
:1001D00085B38295807F85BB8091300190913101FC
:1001E00001969093310180933001803D974039F41E
:1001F00086B1806486B91092310110923001FF916E
:10020000EF919F918F912F910F900BBE0F900FBE8A
:100210000F901F9018951F920F920FB60F921124F6
:100220000BB60F920F931F932F933F934F935F93B0
:100230006F937F938F939F93AF93BF93EF93FF93AE
:10024000CF93DF93CDB7DEB72A97DEBFCDBF84B1A2
:1002500095B18E010F5F1F4F2AE0F80111922A9588
:10026000E9F74AE0B801DAD1C8015AD12A960FB6A7
:10027000F894DEBF0FBECDBFDF91CF91FF91EF911C
:10028000BF91AF919F918F917F916F915F914F91AE
:100290003F912F911F910F910F900BBE0F900FBEAA
:1002A0000F901F901895CF93DF93CDB7DEB7C0584E
:1002B000D1090FB6F894DEBF0FBECDBF8FEF8ABB5A
:1002C00084BB8FE08093640082B18F7C82B9E1E6C9
:1002D000F0E080818E7F80838AB78A7F8ABF8AB769
:1002E0008A608ABF89B7806389BF789483B7886042
:1002F00083BF87B7826087BF89EF81BF83B7846080
:1003000083BF17B886B18F6886B986B1806486B915
:10031000FE01319680E8DF011D928A95E9F760E8D9
:1003200075E280E090E0CED0CE01019609D1CE01F9
:1003300001964ED18C0168E271E0CE01019665D143
:10034000892B39F48FEF8BBB10923401109233015B
:10035000EBCF6BE271E0CE01019657D1892B31F4DE
:100360001BBA1092340110923301DECF0130110517
:1003700039F481E08BBB1092340110923301D4CF59
:100380000230110539F483E08BBB109234011092D6
:100390003301CACF0330110539F487E08BBB1092CB
:1003A000340110923301C0CF0430110539F48FE0CD
:1003B0008BBB1092340110923301B6CF053011057A
:1003C00039F48FE18BBB1092340110923301ACCF22
:1003D0000630110539F48FE38BBB10923401109273
:1003E0003301A2CF0730110539F48FE78BBB109290
:1003F00034011092330198CF0830110539F48FEF92
:100400008BBB10923401109233018ECFC801885EED
:1004100093408832934248F134C09801ADECBCEC73
:10042000C8D09695879596958795969587959C01C2
:10043000220F331F880F991F880F991F880F991F4C
:10044000820F931F9801281B390BFA01EB5CFE4FBA
:1004500020839801AED08C011695079516950795C7
:10046000169507954F5F5F4F02C040E050E0443063
:1004700051059CF281E090E0909334018093330128
:1004800053CF109234011092330180E090E016C0F7
:100490002FEF2BBB3FEF41EEA4E031504040A04096
:1004A000E1F700C000001BBABFEF21EE34E0B1500D
:1004B00020403040E1F700C00000019683309105F4
:1004C0003CF332CFDC01CB01880F991FAA1FBB1F61
:1004D000880F991FAA1FBB1F9C01AD01220F331F5C
:1004E000441F551F220F331F441F551F60E074E245
:1004F00084EF90E03CD0215031093093900029B92D
:1005000080E28BB988E18AB986E0809395000895EE
:100510005D9BFECF8CB908955F9BFECF8CB1089593
:10052000CF93DF93EC0102C0F3DF21968881811124
:10053000FBCF8DE0EDDF8AE0EBDFDF91CF91089517
:100540000F931F93CF93DF938C01C0E0D0E0E4DFE3
:1005500021968D3021F0F80181938F01F8CFF801B9
:100560001082CE01DF91CF911F910F910895A1E2EA
:100570001A2EAA1BBB1BFD010DC0AA1FBB1FEE1F1D
:10058000FF1FA217B307E407F50720F0A21BB30B68
:10059000E40BF50B661F771F881F991F1A9469F7E4
:1005A00060957095809590959B01AC01BD01CF0140
:1005B0000895A29FB001B39FC001A39F700D811D3C
:1005C0001124911DB29F700D811D1124911D08955C
:1005D000FC0188279927E89421912032E9F32930FA
:1005E00010F02E30C8F32B3239F02D3231F46894EC
:1005F00003C01ED0820F911D219120532A30C8F3D1
:100600001EF4909581959F4F0895FB01DC018D911B
:10061000019080190110D9F3990B0895BB274A3036
:1006200031F4992322F4BDE2909581959F4F09C042
:100630007AE0979F902D879F802D910D112408952A
:10064000BB27FB015527AA27880F991FAA1FA417AC
:1006500010F0A41B83955051B9F7A05DAA3308F0A0
:10066000A95DA193009779F7B111B1931192CB01D4
:1006700000C0DC01FC01672F71917723E1F732970D
:1006800004C07C916D9370836291AE17BF07C8F36D
:060690000895F894FFCF6D
:100696003F065B4F666D7D077F6F777C395E7971AC
:1006A60073773120636C69636B65640073773220FE
:1006B600636C69636B6564006F6E006F666600004D
:00000001FF
