S01300003233303931395F546573742E73726563DA
S113000045C0000060C000005EC000005CC000008D
S11300105AC0000058C0000056C0000054C0000080
S113002052C0000050C000004EC000004CC0000090
S11300304AC0000048C0000046C0000044C00000A0
S113004043C0000040C000003EC000003CC00000AF
S11300503AC0000038C0000036C0000034C00000C0
S113006032C0000030C000002EC000002CC00000D0
S11300702AC0000028C0000026C0000024C00000E0
S113008022C0000020C000001EC0000011241FBEBA
S1130090CFEFD0E1DEBFCDBF11E0A0E0B1E0ECE6F0
S11300A0F1E000E00BBF02C007900D92A030B10751
S11300B0D9F721E0A0E0B1E001C01D92A230B2075F
S11300C0E1F72FD051C09CCF1F920F920FB60F9221
S11300D011248F93809100018F5F809300018D37ED
S11300E0C1F480910101882349F08BB386958BBBC1
S11300F08BB3813061F41092010109C08BB3880F76
S11301008BBB8BB3803819F481E08093010110928A
S1130110000182E882BF8F910F900FBE0F901F9055
S113012018958FEF8ABB82B18F7C82B981E08BBB3B
S113013083B7877883BF87B7816087BF789483B795
S1130140876083BF82E882BF8BB3813029F00C992A
S113015003C081E0809301018BB38038A9F30D992A
S10F0160F3CF10920101F0CFF894FFCF10
S9030000FC
